:03000000020040BB
:10004000C2B720B1FDD2B3D2B2D2B6D2B37409F9DD
:10005000FC89807405F5A07409F59011C414B400EE
:10006000F8E5A075900011C414B400E975A0007EF5
:10007000098E901E11C4BE00F87590001911C48934
:1000800080B900CD7580007405F5A07409F5901154
:10009000C414B400F8E5A075900011C414B400E9CC
:1000A00075800075A0007E098E901E11C4BE00F8F8
:1000B000759000D2B720B0FD8C8075A005759009B1
:1000C000C2B7014011CF11DD11E311CF11DD2220A4
:1000D000B00A8C8075900975A00501402220B102FC
:1000E00080FB22758901758C3C758AB07F00D28CAB
:1000F000308DFD758C3C758AB0C28D0FBF14F12216
:00000001FF
